{
  "_format": "hh-sol-artifact-1",
  "contractName": "Samudai",
  "sourceName": "contracts/Samudai.sol",
  "abi": [
    {
      "inputs": [],
      "stateMutability": "nonpayable",
      "type": "constructor"
    },
    {
      "anonymous": false,
      "inputs": [
        {
          "indexed": true,
          "internalType": "bytes32",
          "name": "node",
          "type": "bytes32"
        },
        {
          "indexed": false,
          "internalType": "address",
          "name": "a",
          "type": "address"
        }
      ],
      "name": "AddrChanged",
      "type": "event"
    },
    {
      "anonymous": false,
      "inputs": [
        {
          "indexed": true,
          "internalType": "bytes32",
          "name": "node",
          "type": "bytes32"
        },
        {
          "indexed": false,
          "internalType": "uint256",
          "name": "coinType",
          "type": "uint256"
        },
        {
          "indexed": false,
          "internalType": "bytes",
          "name": "newAddress",
          "type": "bytes"
        }
      ],
      "name": "AddressChanged",
      "type": "event"
    },
    {
      "anonymous": false,
      "inputs": [
        {
          "indexed": true,
          "internalType": "address",
          "name": "previousOwner",
          "type": "address"
        },
        {
          "indexed": true,
          "internalType": "address",
          "name": "newOwner",
          "type": "address"
        }
      ],
      "name": "OwnershipTransferred",
      "type": "event"
    },
    {
      "anonymous": false,
      "inputs": [
        {
          "indexed": true,
          "internalType": "address",
          "name": "registrar",
          "type": "address"
        },
        {
          "indexed": true,
          "internalType": "string",
          "name": "label",
          "type": "string"
        }
      ],
      "name": "RegisterSubdomain",
      "type": "event"
    },
    {
      "anonymous": false,
      "inputs": [
        {
          "indexed": true,
          "internalType": "bytes32",
          "name": "node",
          "type": "bytes32"
        },
        {
          "indexed": true,
          "internalType": "string",
          "name": "indexedKey",
          "type": "string"
        },
        {
          "indexed": false,
          "internalType": "string",
          "name": "key",
          "type": "string"
        }
      ],
      "name": "TextChanged",
      "type": "event"
    },
    {
      "inputs": [],
      "name": "ReverseResolver",
      "outputs": [
        {
          "internalType": "contract IReverseResolver",
          "name": "",
          "type": "address"
        }
      ],
      "stateMutability": "view",
      "type": "function"
    },
    {
      "inputs": [
        {
          "internalType": "bytes32",
          "name": "nodeID",
          "type": "bytes32"
        }
      ],
      "name": "addr",
      "outputs": [
        {
          "internalType": "address",
          "name": "",
          "type": "address"
        }
      ],
      "stateMutability": "view",
      "type": "function"
    },
    {
      "inputs": [
        {
          "internalType": "address",
          "name": "",
          "type": "address"
        }
      ],
      "name": "addressToHashmap",
      "outputs": [
        {
          "internalType": "bytes32",
          "name": "",
          "type": "bytes32"
        }
      ],
      "stateMutability": "view",
      "type": "function"
    },
    {
      "inputs": [
        {
          "internalType": "string",
          "name": "label",
          "type": "string"
        }
      ],
      "name": "claimSubdomain",
      "outputs": [],
      "stateMutability": "nonpayable",
      "type": "function"
    },
    {
      "inputs": [],
      "name": "domainHash",
      "outputs": [
        {
          "internalType": "bytes32",
          "name": "",
          "type": "bytes32"
        }
      ],
      "stateMutability": "view",
      "type": "function"
    },
    {
      "inputs": [],
      "name": "domainLabel",
      "outputs": [
        {
          "internalType": "string",
          "name": "",
          "type": "string"
        }
      ],
      "stateMutability": "view",
      "type": "function"
    },
    {
      "inputs": [
        {
          "internalType": "string",
          "name": "label",
          "type": "string"
        }
      ],
      "name": "domainMap",
      "outputs": [
        {
          "internalType": "bytes32",
          "name": "",
          "type": "bytes32"
        }
      ],
      "stateMutability": "view",
      "type": "function"
    },
    {
      "inputs": [
        {
          "internalType": "bytes32",
          "name": "",
          "type": "bytes32"
        }
      ],
      "name": "hashToAddressMap",
      "outputs": [
        {
          "internalType": "address",
          "name": "",
          "type": "address"
        }
      ],
      "stateMutability": "view",
      "type": "function"
    },
    {
      "inputs": [
        {
          "internalType": "bytes32",
          "name": "",
          "type": "bytes32"
        }
      ],
      "name": "hashToDomainMap",
      "outputs": [
        {
          "internalType": "string",
          "name": "",
          "type": "string"
        }
      ],
      "stateMutability": "view",
      "type": "function"
    },
    {
      "inputs": [
        {
          "internalType": "bytes32[]",
          "name": "proof",
          "type": "bytes32[]"
        }
      ],
      "name": "isValid",
      "outputs": [
        {
          "internalType": "bool",
          "name": "",
          "type": "bool"
        }
      ],
      "stateMutability": "view",
      "type": "function"
    },
    {
      "inputs": [
        {
          "internalType": "bytes32",
          "name": "node",
          "type": "bytes32"
        }
      ],
      "name": "name",
      "outputs": [
        {
          "internalType": "string",
          "name": "",
          "type": "string"
        }
      ],
      "stateMutability": "view",
      "type": "function"
    },
    {
      "inputs": [],
      "name": "owner",
      "outputs": [
        {
          "internalType": "address",
          "name": "",
          "type": "address"
        }
      ],
      "stateMutability": "view",
      "type": "function"
    },
    {
      "inputs": [],
      "name": "renounceOwnership",
      "outputs": [],
      "stateMutability": "nonpayable",
      "type": "function"
    },
    {
      "inputs": [
        {
          "internalType": "bytes32[]",
          "name": "proof",
          "type": "bytes32[]"
        }
      ],
      "name": "resetHash",
      "outputs": [],
      "stateMutability": "nonpayable",
      "type": "function"
    },
    {
      "inputs": [
        {
          "internalType": "string",
          "name": "_name",
          "type": "string"
        }
      ],
      "name": "setContractName",
      "outputs": [],
      "stateMutability": "nonpayable",
      "type": "function"
    },
    {
      "inputs": [
        {
          "internalType": "bytes32",
          "name": "node",
          "type": "bytes32"
        },
        {
          "internalType": "string",
          "name": "key",
          "type": "string"
        },
        {
          "internalType": "string",
          "name": "value",
          "type": "string"
        },
        {
          "internalType": "bytes32[]",
          "name": "proof",
          "type": "bytes32[]"
        }
      ],
      "name": "setText",
      "outputs": [],
      "stateMutability": "nonpayable",
      "type": "function"
    },
    {
      "inputs": [
        {
          "internalType": "bytes4",
          "name": "interfaceID",
          "type": "bytes4"
        }
      ],
      "name": "supportsInterface",
      "outputs": [
        {
          "internalType": "bool",
          "name": "",
          "type": "bool"
        }
      ],
      "stateMutability": "pure",
      "type": "function"
    },
    {
      "inputs": [
        {
          "internalType": "bytes32",
          "name": "node",
          "type": "bytes32"
        },
        {
          "internalType": "string",
          "name": "key",
          "type": "string"
        }
      ],
      "name": "text",
      "outputs": [
        {
          "internalType": "string",
          "name": "",
          "type": "string"
        }
      ],
      "stateMutability": "view",
      "type": "function"
    },
    {
      "inputs": [
        {
          "internalType": "bytes32",
          "name": "",
          "type": "bytes32"
        },
        {
          "internalType": "string",
          "name": "",
          "type": "string"
        }
      ],
      "name": "texts",
      "outputs": [
        {
          "internalType": "string",
          "name": "",
          "type": "string"
        }
      ],
      "stateMutability": "view",
      "type": "function"
    },
    {
      "inputs": [
        {
          "internalType": "address",
          "name": "newOwner",
          "type": "address"
        }
      ],
      "name": "transferOwnership",
      "outputs": [],
      "stateMutability": "nonpayable",
      "type": "function"
    },
    {
      "inputs": [
        {
          "internalType": "bytes32",
          "name": "_domainHash",
          "type": "bytes32"
        }
      ],
      "name": "updateDomainHash",
      "outputs": [],
      "stateMutability": "nonpayable",
      "type": "function"
    },
    {
      "inputs": [
        {
          "internalType": "string",
          "name": "_domainLabel",
          "type": "string"
        }
      ],
      "name": "updateDomainLabel",
      "outputs": [],
      "stateMutability": "nonpayable",
      "type": "function"
    },
    {
      "inputs": [
        {
          "internalType": "bytes32",
          "name": "_hash",
          "type": "bytes32"
        }
      ],
      "name": "updateMerkleHash",
      "outputs": [],
      "stateMutability": "nonpayable",
      "type": "function"
    }
  ],
  "bytecode": "0x60806040527f4a63d36066671308df5b4368b460753f2ca0ef94f3295ba5d60419394528492860001b6002556040518060400160405280600781526020017f73616d756461690000000000000000000000000000000000000000000000000081525060039081620000719190620003ec565b503480156200007f57600080fd5b50620000a062000094620000a660201b60201c565b620000ae60201b60201c565b620004d3565b600033905090565b60008060009054906101000a900473ffffffffffffffffffffffffffffffffffffffff169050816000806101000a81548173ffffffffffffffffffffffffffffffffffffffff021916908373ffffffffffffffffffffffffffffffffffffffff1602179055508173ffffffffffffffffffffffffffffffffffffffff168173ffffffffffffffffffffffffffffffffffffffff167f8be0079c531659141344cd1fd0a4f28419497f9722a3daafe3b4186f6b6457e060405160405180910390a35050565b600081519050919050565b7f4e487b7100000000000000000000000000000000000000000000000000000000600052604160045260246000fd5b7f4e487b7100000000000000000000000000000000000000000000000000000000600052602260045260246000fd5b60006002820490506001821680620001f457607f821691505b6020821081036200020a5762000209620001ac565b5b50919050565b60008190508160005260206000209050919050565b60006020601f8301049050919050565b600082821b905092915050565b600060088302620002747fffffffffffffffffffffffffffffffffffffffffffffffffffffffffffffffff8262000235565b62000280868362000235565b95508019841693508086168417925050509392505050565b6000819050919050565b6000819050919050565b6000620002cd620002c7620002c18462000298565b620002a2565b62000298565b9050919050565b6000819050919050565b620002e983620002ac565b62000301620002f882620002d4565b84845462000242565b825550505050565b600090565b6200031862000309565b62000325818484620002de565b505050565b5b818110156200034d57620003416000826200030e565b6001810190506200032b565b5050565b601f8211156200039c57620003668162000210565b620003718462000225565b8101602085101562000381578190505b62000399620003908562000225565b8301826200032a565b50505b505050565b600082821c905092915050565b6000620003c160001984600802620003a1565b1980831691505092915050565b6000620003dc8383620003ae565b9150826002028217905092915050565b620003f78262000172565b67ffffffffffffffff8111156200041357620004126200017d565b5b6200041f8254620001db565b6200042c82828562000351565b600060209050601f8311600181146200046457600084156200044f578287015190505b6200045b8582620003ce565b865550620004cb565b601f198416620004748662000210565b60005b828110156200049e5784890151825560018201915060208501945060208101905062000477565b86831015620004be5784890151620004ba601f891682620003ae565b8355505b6001600288020188555050505b505050505050565b612bbf80620004e36000396000f3fe608060405234801561001057600080fd5b506004361061014d5760003560e01c8063715018a6116100c3578063c074c3da1161007c578063c074c3da1461039a578063c814fdb2146103ca578063dfe86ac5146103fa578063ea5822c614610418578063f2fde38b14610448578063f56f516f146104645761014d565b8063715018a6146102ec5780638da5cb5b146102f657806395b32c6e1461031457806398879bb914610330578063ab17fce014610360578063bcbe0e3c1461037c5761014d565b8063428cfb2011610115578063428cfb201461020657806359d1d43c146102365780635c3f712914610266578063610732fc14610282578063691f3431146102a05780636c4d8174146102d05761014d565b806301ffc9a7146101525780630b5ee006146101825780630e360cdb1461019e5780633b3b57de146101ba5780633f6dce28146101ea575b600080fd5b61016c6004803603810190610167919061189a565b610494565b60405161017991906118e2565b60405180910390f35b61019c60048036038101906101979190611962565b610556565b005b6101b860048036038101906101b39190611962565b6105db565b005b6101d460048036038101906101cf91906119e5565b610998565b6040516101e19190611a53565b60405180910390f35b61020460048036038101906101ff91906119e5565b610a91565b005b610220600480360381019061021b91906119e5565b610aa3565b60405161022d9190611afe565b60405180910390f35b610250600480360381019061024b9190611b20565b610b43565b60405161025d9190611afe565b60405180910390f35b610280600480360381019061027b9190611cb0565b610cc5565b005b61028a610ce0565b6040516102979190611d58565b60405180910390f35b6102ba60048036038101906102b591906119e5565b610cf8565b6040516102c79190611afe565b60405180910390f35b6102ea60048036038101906102e59190611dc9565b610d73565b005b6102f4610fdf565b005b6102fe61102a565b60405161030b9190611a53565b60405180910390f35b61032e600480360381019061032991906119e5565b611053565b005b61034a60048036038101906103459190611e42565b611065565b6040516103579190611e7e565b60405180910390f35b61037a60048036038101906103759190611e99565b61107d565b005b610384611260565b6040516103919190611afe565b60405180910390f35b6103b460048036038101906103af9190611962565b6112ee565b6040516103c19190611e7e565b60405180910390f35b6103e460048036038101906103df91906119e5565b6113c7565b6040516103f19190611a53565b60405180910390f35b6104026113fa565b60405161040f9190611e7e565b60405180910390f35b610432600480360381019061042d9190611f62565b611400565b60405161043f9190611afe565b60405180910390f35b610462600480360381019061045d9190611e42565b6114c3565b005b61047e60048036038101906104799190611dc9565b611546565b60405161048b91906118e2565b60405180910390f35b6000633b3b57de60e01b827bffffffffffffffffffffffffffffffffffffffffffffffffffffffff191614806104ef57506359d1d43c60e01b827bffffffffffffffffffffffffffffffffffffffffffffffffffffffff1916145b8061051f575063691f343160e01b827bffffffffffffffffffffffffffffffffffffffffffffffffffffffff1916145b8061054f57506301ffc9a760e01b827bffffffffffffffffffffffffffffffffffffffffffffffffffffffff1916145b9050919050565b73d5610a08e370051a01fdfe4bb3ddf5270af1aa4873ffffffffffffffffffffffffffffffffffffffff1663c47f002783836040518363ffffffff1660e01b81526004016105a5929190611feb565b600060405180830381600087803b1580156105bf57600080fd5b505af11580156105d3573d6000803e3d6000fd5b505050505050565b6000801b600660003373ffffffffffffffffffffffffffffffffffffffff1673ffffffffffffffffffffffffffffffffffffffff168152602001908152602001600020541461065f576040517f08c379a000000000000000000000000000000000000000000000000000000000815260040161065690612081565b60405180910390fd5b600082826040516020016106749291906120d1565b6040516020818303038152906040528051906020012090506000600254826040516020016106a392919061210b565b6040516020818303038152906040528051906020012090506e0c2e074ec69a0dfb2997ba6c7d2e1e73ffffffffffffffffffffffffffffffffffffffff1663f79fe538826040518263ffffffff1660e01b81526004016107039190611e7e565b602060405180830381865afa158015610720573d6000803e3d6000fd5b505050506040513d601f19601f820116820180604052508101906107449190612163565b1580610782575061075361102a565b73ffffffffffffffffffffffffffffffffffffffff163373ffffffffffffffffffffffffffffffffffffffff16145b6107c1576040517f08c379a00000000000000000000000000000000000000000000000000000000081526004016107b8906121dc565b60405180910390fd5b6e0c2e074ec69a0dfb2997ba6c7d2e1e73ffffffffffffffffffffffffffffffffffffffff16635ef2c7f060025484333060006040518663ffffffff1660e01b815260040161081495949392919061224b565b600060405180830381600087803b15801561082e57600080fd5b505af1158015610842573d6000803e3d6000fd5b50505050336005600083815260200190815260200160002060006101000a81548173ffffffffffffffffffffffffffffffffffffffff021916908373ffffffffffffffffffffffffffffffffffffffff16021790555080600660003373ffffffffffffffffffffffffffffffffffffffff1673ffffffffffffffffffffffffffffffffffffffff1681526020019081526020016000208190555083836007600084815260200190815260200160002091826108fe9291906124b5565b50838360405161090f9291906120d1565b60405180910390203373ffffffffffffffffffffffffffffffffffffffff167fc340f6265434ca2a4cb3ff671817af411cd92344d10a83ecc1d4d9400e35a21b60405160405180910390a3807f52d7d861f09ab3d26239d492e8968629f95e9e318cf0b73bfddc441522a15fd23360405161098a9190611a53565b60405180910390a250505050565b6000806005600084815260200190815260200160002060009054906101000a900473ffffffffffffffffffffffffffffffffffffffff1690506000801b600660008373ffffffffffffffffffffffffffffffffffffffff1673ffffffffffffffffffffffffffffffffffffffff1681526020019081526020016000205403610a55576040517f08c379a0000000000000000000000000000000000000000000000000000000008152600401610a4c906125d1565b60405180910390fd5b6005600084815260200190815260200160002060009054906101000a900473ffffffffffffffffffffffffffffffffffffffff16915050919050565b610a996115c4565b8060028190555050565b60076020528060005260406000206000915090508054610ac2906122d8565b80601f0160208091040260200160405190810160405280929190818152602001828054610aee906122d8565b8015610b3b5780601f10610b1057610100808354040283529160200191610b3b565b820191906000526020600020905b815481529060010190602001808311610b1e57829003601f168201915b505050505081565b606060006005600086815260200190815260200160002060009054906101000a900473ffffffffffffffffffffffffffffffffffffffff1690506000801b600660008373ffffffffffffffffffffffffffffffffffffffff1673ffffffffffffffffffffffffffffffffffffffff1681526020019081526020016000205403610c01576040517f08c379a0000000000000000000000000000000000000000000000000000000008152600401610bf8906125d1565b60405180910390fd5b600460008681526020019081526020016000208484604051610c249291906120d1565b90815260200160405180910390208054610c3d906122d8565b80601f0160208091040260200160405190810160405280929190818152602001828054610c69906122d8565b8015610cb65780601f10610c8b57610100808354040283529160200191610cb6565b820191906000526020600020905b815481529060010190602001808311610c9957829003601f168201915b50505050509150509392505050565b610ccd6115c4565b8060039081610cdc91906125f1565b5050565b73d5610a08e370051a01fdfe4bb3ddf5270af1aa4881565b60606000600760008481526020019081526020016000208054610d1a906122d8565b905014610d5b57600760008381526020019081526020016000206003604051602001610d479291906127de565b604051602081830303815290604052610d6c565b604051806020016040528060008152505b9050919050565b81813373ffffffffffffffffffffffffffffffffffffffff16610d9461102a565b73ffffffffffffffffffffffffffffffffffffffff161480610dbc5750610dbb8282611546565b5b610dfb576040517f08c379a0000000000000000000000000000000000000000000000000000000008152600401610df290612864565b60405180910390fd5b6000600660003373ffffffffffffffffffffffffffffffffffffffff1673ffffffffffffffffffffffffffffffffffffffff1681526020019081526020016000205490506e0c2e074ec69a0dfb2997ba6c7d2e1e73ffffffffffffffffffffffffffffffffffffffff1663f79fe538826040518263ffffffff1660e01b8152600401610e879190611e7e565b602060405180830381865afa158015610ea4573d6000803e3d6000fd5b505050506040513d601f19601f82011682018060405250810190610ec89190612163565b610f07576040517f08c379a0000000000000000000000000000000000000000000000000000000008152600401610efe906128d0565b60405180910390fd5b600760008281526020019081526020016000206000610f2691906117d1565b6005600082815260200190815260200160002060006101000a81549073ffffffffffffffffffffffffffffffffffffffff0219169055600660003373ffffffffffffffffffffffffffffffffffffffff1673ffffffffffffffffffffffffffffffffffffffff16815260200190815260200160002060009055807f52d7d861f09ab3d26239d492e8968629f95e9e318cf0b73bfddc441522a15fd26000604051610fd09190611a53565b60405180910390a25050505050565b6000611020576040517f08c379a000000000000000000000000000000000000000000000000000000000815260040161101790612962565b60405180910390fd5b611028611642565b565b60008060009054906101000a900473ffffffffffffffffffffffffffffffffffffffff16905090565b61105b6115c4565b8060018190555050565b60066020528060005260406000206000915090505481565b81813373ffffffffffffffffffffffffffffffffffffffff1661109e61102a565b73ffffffffffffffffffffffffffffffffffffffff1614806110c657506110c58282611546565b5b611105576040517f08c379a00000000000000000000000000000000000000000000000000000000081526004016110fc90612864565b60405180910390fd5b6000600560008b815260200190815260200160002060009054906101000a900473ffffffffffffffffffffffffffffffffffffffff1690506000801b600660008373ffffffffffffffffffffffffffffffffffffffff1673ffffffffffffffffffffffffffffffffffffffff16815260200190815260200160002054036111c1576040517f08c379a00000000000000000000000000000000000000000000000000000000081526004016111b8906125d1565b60405180910390fd5b8686600460008d81526020019081526020016000208b8b6040516111e69291906120d1565b908152602001604051809103902091826112019291906124b5565b5088886040516112129291906120d1565b60405180910390208a7fd8c9334b1a9c2f9da342a0a2b32629c1a229b6445dad78947f674b44444a75508b8b60405161124c929190611feb565b60405180910390a350505050505050505050565b6003805461126d906122d8565b80601f0160208091040260200160405190810160405280929190818152602001828054611299906122d8565b80156112e65780601f106112bb576101008083540402835291602001916112e6565b820191906000526020600020905b8154815290600101906020018083116112c957829003601f168201915b505050505081565b60008083836040516020016113049291906120d1565b60405160208183030381529060405280519060200120905060006002548260405160200161133392919061210b565b604051602081830303815290604052805190602001209050600073ffffffffffffffffffffffffffffffffffffffff166005600083815260200190815260200160002060009054906101000a900473ffffffffffffffffffffffffffffffffffffffff1673ffffffffffffffffffffffffffffffffffffffff16036113bb576000801b6113bd565b805b9250505092915050565b60056020528060005260406000206000915054906101000a900473ffffffffffffffffffffffffffffffffffffffff1681565b60025481565b600460205281600052604060002081805160208101820180518482526020830160208501208183528095505050505050600091509150508054611442906122d8565b80601f016020809104026020016040519081016040528092919081815260200182805461146e906122d8565b80156114bb5780601f10611490576101008083540402835291602001916114bb565b820191906000526020600020905b81548152906001019060200180831161149e57829003601f168201915b505050505081565b6114cb6115c4565b600073ffffffffffffffffffffffffffffffffffffffff168173ffffffffffffffffffffffffffffffffffffffff160361153a576040517f08c379a0000000000000000000000000000000000000000000000000000000008152600401611531906129f4565b60405180910390fd5b61154381611656565b50565b60006115bc838380806020026020016040519081016040528093929190818152602001838360200280828437600081840152601f19601f82011690508083019250505050505050600154336040516020016115a19190612a5c565b6040516020818303038152906040528051906020012061171a565b905092915050565b6115cc611731565b73ffffffffffffffffffffffffffffffffffffffff166115ea61102a565b73ffffffffffffffffffffffffffffffffffffffff1614611640576040517f08c379a000000000000000000000000000000000000000000000000000000000815260040161163790612ac3565b60405180910390fd5b565b61164a6115c4565b6116546000611656565b565b60008060009054906101000a900473ffffffffffffffffffffffffffffffffffffffff169050816000806101000a81548173ffffffffffffffffffffffffffffffffffffffff021916908373ffffffffffffffffffffffffffffffffffffffff1602179055508173ffffffffffffffffffffffffffffffffffffffff168173ffffffffffffffffffffffffffffffffffffffff167f8be0079c531659141344cd1fd0a4f28419497f9722a3daafe3b4186f6b6457e060405160405180910390a35050565b6000826117278584611739565b1490509392505050565b600033905090565b60008082905060005b84518110156117845761176f8286838151811061176257611761612ae3565b5b602002602001015161178f565b9150808061177c90612b41565b915050611742565b508091505092915050565b60008183106117a7576117a282846117ba565b6117b2565b6117b183836117ba565b5b905092915050565b600082600052816020526040600020905092915050565b5080546117dd906122d8565b6000825580601f106117ef575061180e565b601f01602090049060005260206000209081019061180d9190611811565b5b50565b5b8082111561182a576000816000905550600101611812565b5090565b6000604051905090565b600080fd5b600080fd5b60007fffffffff0000000000000000000000000000000000000000000000000000000082169050919050565b61187781611842565b811461188257600080fd5b50565b6000813590506118948161186e565b92915050565b6000602082840312156118b0576118af611838565b5b60006118be84828501611885565b91505092915050565b60008115159050919050565b6118dc816118c7565b82525050565b60006020820190506118f760008301846118d3565b92915050565b600080fd5b600080fd5b600080fd5b60008083601f840112611922576119216118fd565b5b8235905067ffffffffffffffff81111561193f5761193e611902565b5b60208301915083600182028301111561195b5761195a611907565b5b9250929050565b6000806020838503121561197957611978611838565b5b600083013567ffffffffffffffff8111156119975761199661183d565b5b6119a38582860161190c565b92509250509250929050565b6000819050919050565b6119c2816119af565b81146119cd57600080fd5b50565b6000813590506119df816119b9565b92915050565b6000602082840312156119fb576119fa611838565b5b6000611a09848285016119d0565b91505092915050565b600073ffffffffffffffffffffffffffffffffffffffff82169050919050565b6000611a3d82611a12565b9050919050565b611a4d81611a32565b82525050565b6000602082019050611a686000830184611a44565b92915050565b600081519050919050565b600082825260208201905092915050565b60005b83811015611aa8578082015181840152602081019050611a8d565b60008484015250505050565b6000601f19601f8301169050919050565b6000611ad082611a6e565b611ada8185611a79565b9350611aea818560208601611a8a565b611af381611ab4565b840191505092915050565b60006020820190508181036000830152611b188184611ac5565b905092915050565b600080600060408486031215611b3957611b38611838565b5b6000611b47868287016119d0565b935050602084013567ffffffffffffffff811115611b6857611b6761183d565b5b611b748682870161190c565b92509250509250925092565b600080fd5b7f4e487b7100000000000000000000000000000000000000000000000000000000600052604160045260246000fd5b611bbd82611ab4565b810181811067ffffffffffffffff82111715611bdc57611bdb611b85565b5b80604052505050565b6000611bef61182e565b9050611bfb8282611bb4565b919050565b600067ffffffffffffffff821115611c1b57611c1a611b85565b5b611c2482611ab4565b9050602081019050919050565b82818337600083830152505050565b6000611c53611c4e84611c00565b611be5565b905082815260208101848484011115611c6f57611c6e611b80565b5b611c7a848285611c31565b509392505050565b600082601f830112611c9757611c966118fd565b5b8135611ca7848260208601611c40565b91505092915050565b600060208284031215611cc657611cc5611838565b5b600082013567ffffffffffffffff811115611ce457611ce361183d565b5b611cf084828501611c82565b91505092915050565b6000819050919050565b6000611d1e611d19611d1484611a12565b611cf9565b611a12565b9050919050565b6000611d3082611d03565b9050919050565b6000611d4282611d25565b9050919050565b611d5281611d37565b82525050565b6000602082019050611d6d6000830184611d49565b92915050565b60008083601f840112611d8957611d886118fd565b5b8235905067ffffffffffffffff811115611da657611da5611902565b5b602083019150836020820283011115611dc257611dc1611907565b5b9250929050565b60008060208385031215611de057611ddf611838565b5b600083013567ffffffffffffffff811115611dfe57611dfd61183d565b5b611e0a85828601611d73565b92509250509250929050565b611e1f81611a32565b8114611e2a57600080fd5b50565b600081359050611e3c81611e16565b92915050565b600060208284031215611e5857611e57611838565b5b6000611e6684828501611e2d565b91505092915050565b611e78816119af565b82525050565b6000602082019050611e936000830184611e6f565b92915050565b60008060008060008060006080888a031215611eb857611eb7611838565b5b6000611ec68a828b016119d0565b975050602088013567ffffffffffffffff811115611ee757611ee661183d565b5b611ef38a828b0161190c565b9650965050604088013567ffffffffffffffff811115611f1657611f1561183d565b5b611f228a828b0161190c565b9450945050606088013567ffffffffffffffff811115611f4557611f4461183d565b5b611f518a828b01611d73565b925092505092959891949750929550565b60008060408385031215611f7957611f78611838565b5b6000611f87858286016119d0565b925050602083013567ffffffffffffffff811115611fa857611fa761183d565b5b611fb485828601611c82565b9150509250929050565b6000611fca8385611a79565b9350611fd7838584611c31565b611fe083611ab4565b840190509392505050565b60006020820190508181036000830152612006818486611fbe565b90509392505050565b7f4164647265737320616c726561647920636c61696d656420737562646f6d616960008201527f6e00000000000000000000000000000000000000000000000000000000000000602082015250565b600061206b602183611a79565b91506120768261200f565b604082019050919050565b6000602082019050818103600083015261209a8161205e565b9050919050565b600081905092915050565b60006120b883856120a1565b93506120c5838584611c31565b82840190509392505050565b60006120de8284866120ac565b91508190509392505050565b6000819050919050565b612105612100826119af565b6120ea565b82525050565b600061211782856120f4565b60208201915061212782846120f4565b6020820191508190509392505050565b612140816118c7565b811461214b57600080fd5b50565b60008151905061215d81612137565b92915050565b60006020828403121561217957612178611838565b5b60006121878482850161214e565b91505092915050565b7f7375622d646f6d61696e20616c72656164792065786973747300000000000000600082015250565b60006121c6601983611a79565b91506121d182612190565b602082019050919050565b600060208201905081810360008301526121f5816121b9565b9050919050565b6000819050919050565b600067ffffffffffffffff82169050919050565b600061223561223061222b846121fc565b611cf9565b612206565b9050919050565b6122458161221a565b82525050565b600060a0820190506122606000830188611e6f565b61226d6020830187611e6f565b61227a6040830186611a44565b6122876060830185611a44565b612294608083018461223c565b9695505050505050565b600082905092915050565b7f4e487b7100000000000000000000000000000000000000000000000000000000600052602260045260246000fd5b600060028204905060018216806122f057607f821691505b602082108103612303576123026122a9565b5b50919050565b60008190508160005260206000209050919050565b60006020601f8301049050919050565b600082821b905092915050565b60006008830261236b7fffffffffffffffffffffffffffffffffffffffffffffffffffffffffffffffff8261232e565b612375868361232e565b95508019841693508086168417925050509392505050565b6000819050919050565b60006123b26123ad6123a88461238d565b611cf9565b61238d565b9050919050565b6000819050919050565b6123cc83612397565b6123e06123d8826123b9565b84845461233b565b825550505050565b600090565b6123f56123e8565b6124008184846123c3565b505050565b5b81811015612424576124196000826123ed565b600181019050612406565b5050565b601f8211156124695761243a81612309565b6124438461231e565b81016020851015612452578190505b61246661245e8561231e565b830182612405565b50505b505050565b600082821c905092915050565b600061248c6000198460080261246e565b1980831691505092915050565b60006124a5838361247b565b9150826002028217905092915050565b6124bf838361229e565b67ffffffffffffffff8111156124d8576124d7611b85565b5b6124e282546122d8565b6124ed828285612428565b6000601f83116001811461251c576000841561250a578287013590505b6125148582612499565b86555061257c565b601f19841661252a86612309565b60005b828110156125525784890135825560018201915060208501945060208101905061252d565b8683101561256f578489013561256b601f89168261247b565b8355505b6001600288020188555050505b50505050505050565b7f496e76616c696420616464726573730000000000000000000000000000000000600082015250565b60006125bb600f83611a79565b91506125c682612585565b602082019050919050565b600060208201905081810360008301526125ea816125ae565b9050919050565b6125fa82611a6e565b67ffffffffffffffff81111561261357612612611b85565b5b61261d82546122d8565b612628828285612428565b600060209050601f83116001811461265b5760008415612649578287015190505b6126538582612499565b8655506126bb565b601f19841661266986612309565b60005b828110156126915784890151825560018201915060208501945060208101905061266c565b868310156126ae57848901516126aa601f89168261247b565b8355505b6001600288020188555050505b505050505050565b600081546126d0816122d8565b6126da81866120a1565b945060018216600081146126f5576001811461270a5761273d565b60ff198316865281151582028601935061273d565b61271385612309565b60005b8381101561273557815481890152600182019150602081019050612716565b838801955050505b50505092915050565b7f2e00000000000000000000000000000000000000000000000000000000000000600082015250565b600061277c6001836120a1565b915061278782612746565b600182019050919050565b7f2e65746800000000000000000000000000000000000000000000000000000000600082015250565b60006127c86004836120a1565b91506127d382612792565b600482019050919050565b60006127ea82856126c3565b91506127f58261276f565b915061280182846126c3565b915061280c826127bb565b91508190509392505050565b7f556e617574686f72697365642075736572000000000000000000000000000000600082015250565b600061284e601183611a79565b915061285982612818565b602082019050919050565b6000602082019050818103600083015261287d81612841565b9050919050565b7f5375622d646f6d61696e20646f6573206e6f7420657869737400000000000000600082015250565b60006128ba601983611a79565b91506128c582612884565b602082019050919050565b600060208201905081810360008301526128e9816128ad565b9050919050565b7f454e5320697320726573706f6e736962696c6974792e20596f752063616e6e6f60008201527f742072656e6f756e6365206f776e6572736869702e0000000000000000000000602082015250565b600061294c603583611a79565b9150612957826128f0565b604082019050919050565b6000602082019050818103600083015261297b8161293f565b9050919050565b7f4f776e61626c653a206e6577206f776e657220697320746865207a65726f206160008201527f6464726573730000000000000000000000000000000000000000000000000000602082015250565b60006129de602683611a79565b91506129e982612982565b604082019050919050565b60006020820190508181036000830152612a0d816129d1565b9050919050565b60008160601b9050919050565b6000612a2c82612a14565b9050919050565b6000612a3e82612a21565b9050919050565b612a56612a5182611a32565b612a33565b82525050565b6000612a688284612a45565b60148201915081905092915050565b7f4f776e61626c653a2063616c6c6572206973206e6f7420746865206f776e6572600082015250565b6000612aad602083611a79565b9150612ab882612a77565b602082019050919050565b60006020820190508181036000830152612adc81612aa0565b9050919050565b7f4e487b7100000000000000000000000000000000000000000000000000000000600052603260045260246000fd5b7f4e487b7100000000000000000000000000000000000000000000000000000000600052601160045260246000fd5b6000612b4c8261238d565b91507fffffffffffffffffffffffffffffffffffffffffffffffffffffffffffffffff8203612b7e57612b7d612b12565b5b60018201905091905056fea2646970667358221220ec34bda2350080ea3d63f7cbf36c33b8ba9307cce77605933311c45e9d50882564736f6c63430008110033",
  "linkReferences": {},
  "deployedLinkReferences": {}
}